{"abi":[{"type":"constructor","inputs":[{"name":"_daoRegistry","type":"address","internalType":"address"},{"name":"_issuer","type":"address","internalType":"address"}],"stateMutability":"nonpayable"},{"type":"function","name":"DEFAULT_ADMIN_ROLE","inputs":[],"outputs":[{"name":"","type":"bytes32","internalType":"bytes32"}],"stateMutability":"view"},{"type":"function","name":"certificateCheck","inputs":[],"outputs":[{"name":"","type":"bool","internalType":"bool"}],"stateMutability":"view"},{"type":"function","name":"daoRegistry","inputs":[],"outputs":[{"name":"","type":"address","internalType":"contract MystikoGovernorRegistry"}],"stateMutability":"view"},{"type":"function","name":"disableCertificateCheck","inputs":[],"outputs":[],"stateMutability":"nonpayable"},{"type":"function","name":"enableCertificateCheck","inputs":[],"outputs":[],"stateMutability":"nonpayable"},{"type":"function","name":"getIssuerAddress","inputs":[],"outputs":[{"name":"","type":"address","internalType":"address"}],"stateMutability":"view"},{"type":"function","name":"getRoleAdmin","inputs":[{"name":"role","type":"bytes32","internalType":"bytes32"}],"outputs":[{"name":"","type":"bytes32","internalType":"bytes32"}],"stateMutability":"view"},{"type":"function","name":"grantRole","inputs":[{"name":"role","type":"bytes32","internalType":"bytes32"},{"name":"account","type":"address","internalType":"address"}],"outputs":[],"stateMutability":"nonpayable"},{"type":"function","name":"hasRole","inputs":[{"name":"role","type":"bytes32","internalType":"bytes32"},{"name":"account","type":"address","internalType":"address"}],"outputs":[{"name":"","type":"bool","internalType":"bool"}],"stateMutability":"view"},{"type":"function","name":"issuer","inputs":[],"outputs":[{"name":"","type":"address","internalType":"address"}],"stateMutability":"view"},{"type":"function","name":"renounceRole","inputs":[{"name":"role","type":"bytes32","internalType":"bytes32"},{"name":"callerConfirmation","type":"address","internalType":"address"}],"outputs":[],"stateMutability":"nonpayable"},{"type":"function","name":"revokeRole","inputs":[{"name":"role","type":"bytes32","internalType":"bytes32"},{"name":"account","type":"address","internalType":"address"}],"outputs":[],"stateMutability":"nonpayable"},{"type":"function","name":"supportsInterface","inputs":[{"name":"interfaceId","type":"bytes4","internalType":"bytes4"}],"outputs":[{"name":"","type":"bool","internalType":"bool"}],"stateMutability":"view"},{"type":"function","name":"updateIssuerAddress","inputs":[{"name":"_newIssuer","type":"address","internalType":"address"}],"outputs":[],"stateMutability":"nonpayable"},{"type":"function","name":"verifyCertificate","inputs":[{"name":"_params","type":"tuple","internalType":"struct CertificateParams","components":[{"name":"account","type":"address","internalType":"address"},{"name":"asset","type":"address","internalType":"address"},{"name":"deadline","type":"uint256","internalType":"uint256"},{"name":"signature","type":"bytes","internalType":"bytes"}]}],"outputs":[{"name":"","type":"bool","internalType":"bool"}],"stateMutability":"view"},{"type":"event","name":"CertificateCheck","inputs":[{"name":"state","type":"bool","indexed":false,"internalType":"bool"}],"anonymous":false},{"type":"event","name":"IssuerChanged","inputs":[{"name":"issuer","type":"address","indexed":false,"internalType":"address"}],"anonymous":false},{"type":"event","name":"RoleAdminChanged","inputs":[{"name":"role","type":"bytes32","indexed":true,"internalType":"bytes32"},{"name":"previousAdminRole","type":"bytes32","indexed":true,"internalType":"bytes32"},{"name":"newAdminRole","type":"bytes32","indexed":true,"internalType":"bytes32"}],"anonymous":false},{"type":"event","name":"RoleGranted","inputs":[{"name":"role","type":"bytes32","indexed":true,"internalType":"bytes32"},{"name":"account","type":"address","indexed":true,"internalType":"address"},{"name":"sender","type":"address","indexed":true,"internalType":"address"}],"anonymous":false},{"type":"event","name":"RoleRevoked","inputs":[{"name":"role","type":"bytes32","indexed":true,"internalType":"bytes32"},{"name":"account","type":"address","indexed":true,"internalType":"address"},{"name":"sender","type":"address","indexed":true,"internalType":"address"}],"anonymous":false},{"type":"error","name":"AccessControlBadConfirmation","inputs":[]},{"type":"error","name":"AccessControlUnauthorizedAccount","inputs":[{"name":"account","type":"address","internalType":"address"},{"name":"neededRole","type":"bytes32","internalType":"bytes32"}]},{"type":"error","name":"ECDSAInvalidSignature","inputs":[]},{"type":"error","name":"ECDSAInvalidSignatureLength","inputs":[{"name":"length","type":"uint256","internalType":"uint256"}]},{"type":"error","name":"ECDSAInvalidSignatureS","inputs":[{"name":"s","type":"bytes32","internalType":"bytes32"}]},{"type":"error","name":"ExpiredCertificate","inputs":[{"name":"deadline","type":"uint256","internalType":"uint256"}]},{"type":"error","name":"InvalidIssuer","inputs":[]},{"type":"error","name":"OnlyMystikoDAO","inputs":[]}],"bytecode":{"object":"0x60806040526002805460ff60a01b1916600160a01b1790553480156200002457600080fd5b5060405162000edd38038062000edd8339810160408190526200004791620001cc565b600180546001600160a01b0319166001600160a01b03841690811790915560408051634162169f60e01b815290518492620000d792600092634162169f916004808201926020929091908290030181865afa158015620000ab573d6000803e3d6000fd5b505050506040513d601f19601f82011682018060405250810190620000d1919062000204565b62000100565b5050600280546001600160a01b0319166001600160a01b03929092169190911790555062000229565b6000828152602081815260408083206001600160a01b038516845290915281205460ff16620001a5576000838152602081815260408083206001600160a01b03861684529091529020805460ff191660011790556200015c3390565b6001600160a01b0316826001600160a01b0316847f2f8788117e7eff1d82e926ec794901d17c78024a50270940304540a733656f0d60405160405180910390a4506001620001a9565b5060005b92915050565b80516001600160a01b0381168114620001c757600080fd5b919050565b60008060408385031215620001e057600080fd5b620001eb83620001af565b9150620001fb60208401620001af565b90509250929050565b6000602082840312156200021757600080fd5b6200022282620001af565b9392505050565b610ca480620002396000396000f3fe608060405234801561001057600080fd5b50600436106100f55760003560e01c806332e71ead11610097578063a217fddf11610066578063a217fddf1461020b578063be102b6a14610213578063d547741f14610227578063e24207aa1461023a57600080fd5b806332e71ead146101c157806336568abe146101d2578063849e8b9f146101e557806391d14854146101f857600080fd5b806323f4c826116100d357806323f4c82614610162578063248a9ca31461016a5780632a2b6ba01461019b5780632f2ff15d146101ae57600080fd5b806301ffc9a7146100fa5780631d143848146101225780631dfab65b1461014d575b600080fd5b61010d610108366004610a2e565b610242565b60405190151581526020015b60405180910390f35b600254610135906001600160a01b031681565b6040516001600160a01b039091168152602001610119565b61016061015b366004610a74565b610279565b005b610160610361565b61018d610178366004610a91565b60009081526020819052604090206001015490565b604051908152602001610119565b600154610135906001600160a01b031681565b6101606101bc366004610aaa565b61044c565b6002546001600160a01b0316610135565b6101606101e0366004610aaa565b610477565b61010d6101f3366004610b4a565b6104af565b61010d610206366004610aaa565b6105b7565b61018d600081565b60025461010d90600160a01b900460ff1681565b610160610235366004610aaa565b6105e0565b610160610605565b60006001600160e01b03198216637965db0b60e01b148061027357506301ffc9a760e01b6001600160e01b03198316145b92915050565b60015460408051634162169f60e01b8152905133926001600160a01b031691634162169f9160048083019260209291908290030181865afa1580156102c2573d6000803e3d6000fd5b505050506040513d601f19601f820116820180604052508101906102e69190610c3b565b6001600160a01b03161461030d5760405163177bc95160e11b815260040160405180910390fd5b600280546001600160a01b0319166001600160a01b0383169081179091556040519081527fcad349a575b7a312fc947b899cb436e2fde2cde8be518bf412258b1d7836a54e9060200160405180910390a150565b60015460408051634162169f60e01b8152905133926001600160a01b031691634162169f9160048083019260209291908290030181865afa1580156103aa573d6000803e3d6000fd5b505050506040513d601f19601f820116820180604052508101906103ce9190610c3b565b6001600160a01b0316146103f55760405163177bc95160e11b815260040160405180910390fd5b6002805460ff60a01b1916908190556040517ffea2f793d2c6ac256ea0dfcb898c0e552223a2a6ed4d2c25d1ed2eca25aad3109161044291600160a01b90910460ff161515815260200190565b60405180910390a1565b600082815260208190526040902060010154610467816106e8565b61047183836106f5565b50505050565b6001600160a01b03811633146104a05760405163334bd91960e11b815260040160405180910390fd5b6104aa8282610787565b505050565b600254600090600160a01b900460ff166104cb57506001919050565b81604001514211156105015781604001516040516366922ea760e01b81526004016104f891815260200190565b60405180910390fd5b6000468360000151846020015185604001516040516020016105549493929190938452606092831b6bffffffffffffffffffffffff1990811660208601529190921b166034830152604882015260680190565b604051602081830303815290604052805190602001209050600061057c8285606001516107f2565b6002549091506001600160a01b038083169116146105ad57604051635edff10b60e11b815260040160405180910390fd5b5060019392505050565b6000918252602082815260408084206001600160a01b0393909316845291905290205460ff1690565b6000828152602081905260409020600101546105fb816106e8565b6104718383610787565b60015460408051634162169f60e01b8152905133926001600160a01b031691634162169f9160048083019260209291908290030181865afa15801561064e573d6000803e3d6000fd5b505050506040513d601f19601f820116820180604052508101906106729190610c3b565b6001600160a01b0316146106995760405163177bc95160e11b815260040160405180910390fd5b6002805460ff60a01b1916600160a01b908117918290556040517ffea2f793d2c6ac256ea0dfcb898c0e552223a2a6ed4d2c25d1ed2eca25aad3109261044292900460ff161515815260200190565b6106f2813361081c565b50565b600061070183836105b7565b61077f576000838152602081815260408083206001600160a01b03861684529091529020805460ff191660011790556107373390565b6001600160a01b0316826001600160a01b0316847f2f8788117e7eff1d82e926ec794901d17c78024a50270940304540a733656f0d60405160405180910390a4506001610273565b506000610273565b600061079383836105b7565b1561077f576000838152602081815260408083206001600160a01b0386168085529252808320805460ff1916905551339286917ff6391f5c32d9c69d2a47ea670b442974b53935d1edc7fd64eb21e047a839171b9190a4506001610273565b6000806000806108028686610859565b92509250925061081282826108a6565b5090949350505050565b61082682826105b7565b6108555760405163e2517d3f60e01b81526001600160a01b0382166004820152602481018390526044016104f8565b5050565b600080600083516041036108935760208401516040850151606086015160001a6108858882858561095f565b95509550955050505061089f565b50508151600091506002905b9250925092565b60008260038111156108ba576108ba610c58565b036108c3575050565b60018260038111156108d7576108d7610c58565b036108f55760405163f645eedf60e01b815260040160405180910390fd5b600282600381111561090957610909610c58565b0361092a5760405163fce698f760e01b8152600481018290526024016104f8565b600382600381111561093e5761093e610c58565b03610855576040516335e2f38360e21b8152600481018290526024016104f8565b600080807f7fffffffffffffffffffffffffffffff5d576e7357a4501ddfe92f46681b20a084111561099a5750600091506003905082610a24565b604080516000808252602082018084528a905260ff891692820192909252606081018790526080810186905260019060a0016020604051602081039080840390855afa1580156109ee573d6000803e3d6000fd5b5050604051601f1901519150506001600160a01b038116610a1a57506000925060019150829050610a24565b9250600091508190505b9450945094915050565b600060208284031215610a4057600080fd5b81356001600160e01b031981168114610a5857600080fd5b9392505050565b6001600160a01b03811681146106f257600080fd5b600060208284031215610a8657600080fd5b8135610a5881610a5f565b600060208284031215610aa357600080fd5b5035919050565b60008060408385031215610abd57600080fd5b823591506020830135610acf81610a5f565b809150509250929050565b634e487b7160e01b600052604160045260246000fd5b6040516080810167ffffffffffffffff81118282101715610b1357610b13610ada565b60405290565b604051601f8201601f1916810167ffffffffffffffff81118282101715610b4257610b42610ada565b604052919050565b60006020808385031215610b5d57600080fd5b823567ffffffffffffffff80821115610b7557600080fd5b9084019060808287031215610b8957600080fd5b610b91610af0565b8235610b9c81610a5f565b815282840135610bab81610a5f565b8185015260408381013590820152606083013582811115610bcb57600080fd5b80840193505086601f840112610be057600080fd5b823582811115610bf257610bf2610ada565b610c04601f8201601f19168601610b19565b92508083528785828601011115610c1a57600080fd5b80858501868501376000908301909401939093526060830152509392505050565b600060208284031215610c4d57600080fd5b8151610a5881610a5f565b634e487b7160e01b600052602160045260246000fdfea26469706673582212206b2fd975077b1e11216060f9be4a10a570531e8de584922d71acaf8d9d67c71464736f6c63430008140033","linkReferences":{}},"methodIdentifiers":{"DEFAULT_ADMIN_ROLE()":"a217fddf","certificateCheck()":"be102b6a","daoRegistry()":"2a2b6ba0","disableCertificateCheck()":"23f4c826","enableCertificateCheck()":"e24207aa","getIssuerAddress()":"32e71ead","getRoleAdmin(bytes32)":"248a9ca3","grantRole(bytes32,address)":"2f2ff15d","hasRole(bytes32,address)":"91d14854","issuer()":"1d143848","renounceRole(bytes32,address)":"36568abe","revokeRole(bytes32,address)":"d547741f","supportsInterface(bytes4)":"01ffc9a7","updateIssuerAddress(address)":"1dfab65b","verifyCertificate((address,address,uint256,bytes))":"849e8b9f"},"id":13}