{"abi":[{"type":"constructor","inputs":[{"name":"_daoRegistry","type":"address","internalType":"address"},{"name":"_certificateRegistry","type":"address","internalType":"contract ICertificate"},{"name":"_rollerRegistry","type":"address","internalType":"contract IMystikoRoller"},{"name":"_relayerRegistry","type":"address","internalType":"contract IMystikoRelayer"},{"name":"_rollupVerifiers","type":"address[11]","internalType":"address[11]"},{"name":"_transactVerifiers","type":"address[6]","internalType":"address[6]"},{"name":"_auditors","type":"uint256[5]","internalType":"uint256[5]"}],"stateMutability":"nonpayable"},{"type":"function","name":"AUDITOR_COUNT","inputs":[],"outputs":[{"name":"","type":"uint256","internalType":"uint256"}],"stateMutability":"view"},{"type":"function","name":"DEFAULT_ADMIN_ROLE","inputs":[],"outputs":[{"name":"","type":"bytes32","internalType":"bytes32"}],"stateMutability":"view"},{"type":"function","name":"canDoRelay","inputs":[{"name":"_params","type":"tuple","internalType":"struct CanDoRelayParams","components":[{"name":"pool","type":"address","internalType":"address"},{"name":"relayer","type":"address","internalType":"address"}]}],"outputs":[{"name":"","type":"bool","internalType":"bool"}],"stateMutability":"view"},{"type":"function","name":"canDoRollup","inputs":[{"name":"_params","type":"tuple","internalType":"struct CanDoRollupParams","components":[{"name":"pool","type":"address","internalType":"address"},{"name":"roller","type":"address","internalType":"address"},{"name":"rollupSize","type":"uint256","internalType":"uint256"},{"name":"queueCount","type":"uint256","internalType":"uint256"},{"name":"includedCount","type":"uint256","internalType":"uint256"}]}],"outputs":[{"name":"","type":"bool","internalType":"bool"}],"stateMutability":"view"},{"type":"function","name":"certificateRegistry","inputs":[],"outputs":[{"name":"","type":"address","internalType":"contract ICertificate"}],"stateMutability":"view"},{"type":"function","name":"changeCertificateRegistry","inputs":[{"name":"_newCertificateRegistry","type":"address","internalType":"contract ICertificate"}],"outputs":[],"stateMutability":"nonpayable"},{"type":"function","name":"changeRelayerRegistry","inputs":[{"name":"_newRelayerRegistry","type":"address","internalType":"contract IMystikoRelayer"}],"outputs":[],"stateMutability":"nonpayable"},{"type":"function","name":"changeRollerRegistry","inputs":[{"name":"_newRollerRegistry","type":"address","internalType":"contract IMystikoRoller"}],"outputs":[],"stateMutability":"nonpayable"},{"type":"function","name":"daoRegistry","inputs":[],"outputs":[{"name":"","type":"address","internalType":"contract MystikoGovernorRegistry"}],"stateMutability":"view"},{"type":"function","name":"disableRollupVerifier","inputs":[{"name":"_rollupSize","type":"uint32","internalType":"uint32"}],"outputs":[],"stateMutability":"nonpayable"},{"type":"function","name":"disableSanctionsCheck","inputs":[],"outputs":[],"stateMutability":"nonpayable"},{"type":"function","name":"disableTransactVerifier","inputs":[{"name":"_numInputs","type":"uint32","internalType":"uint32"},{"name":"_numOutputs","type":"uint32","internalType":"uint32"}],"outputs":[],"stateMutability":"nonpayable"},{"type":"function","name":"enableRollupVerifier","inputs":[{"name":"_rollupSize","type":"uint32","internalType":"uint32"}],"outputs":[],"stateMutability":"nonpayable"},{"type":"function","name":"enableSanctionsCheck","inputs":[],"outputs":[],"stateMutability":"nonpayable"},{"type":"function","name":"enableTransactVerifier","inputs":[{"name":"_numInputs","type":"uint32","internalType":"uint32"},{"name":"_numOutputs","type":"uint32","internalType":"uint32"}],"outputs":[],"stateMutability":"nonpayable"},{"type":"function","name":"getIssuerAddress","inputs":[],"outputs":[{"name":"","type":"address","internalType":"address"}],"stateMutability":"view"},{"type":"function","name":"getRoleAdmin","inputs":[{"name":"role","type":"bytes32","internalType":"bytes32"}],"outputs":[{"name":"","type":"bytes32","internalType":"bytes32"}],"stateMutability":"view"},{"type":"function","name":"grantRole","inputs":[{"name":"role","type":"bytes32","internalType":"bytes32"},{"name":"account","type":"address","internalType":"address"}],"outputs":[],"stateMutability":"nonpayable"},{"type":"function","name":"hasRole","inputs":[{"name":"role","type":"bytes32","internalType":"bytes32"},{"name":"account","type":"address","internalType":"address"}],"outputs":[{"name":"","type":"bool","internalType":"bool"}],"stateMutability":"view"},{"type":"function","name":"isSanctioned","inputs":[{"name":"_account","type":"address","internalType":"address"}],"outputs":[{"name":"","type":"bool","internalType":"bool"}],"stateMutability":"view"},{"type":"function","name":"maxDepositAmountMap","inputs":[{"name":"","type":"address","internalType":"address"}],"outputs":[{"name":"","type":"uint256","internalType":"uint256"}],"stateMutability":"view"},{"type":"function","name":"minBridgeFeeAmount","inputs":[{"name":"","type":"address","internalType":"address"}],"outputs":[{"name":"","type":"uint256","internalType":"uint256"}],"stateMutability":"view"},{"type":"function","name":"minDepositAmountMap","inputs":[{"name":"","type":"address","internalType":"address"}],"outputs":[{"name":"","type":"uint256","internalType":"uint256"}],"stateMutability":"view"},{"type":"function","name":"minPeerExecutorFeeAmount","inputs":[{"name":"","type":"address","internalType":"address"}],"outputs":[{"name":"","type":"uint256","internalType":"uint256"}],"stateMutability":"view"},{"type":"function","name":"minPeerRollupFeeAmount","inputs":[{"name":"","type":"address","internalType":"address"}],"outputs":[{"name":"","type":"uint256","internalType":"uint256"}],"stateMutability":"view"},{"type":"function","name":"minRollupFeeMap","inputs":[{"name":"","type":"address","internalType":"address"}],"outputs":[{"name":"","type":"uint256","internalType":"uint256"}],"stateMutability":"view"},{"type":"function","name":"queryAllAuditorPublicKeys","inputs":[],"outputs":[{"name":"","type":"uint256[]","internalType":"uint256[]"}],"stateMutability":"view"},{"type":"function","name":"queryAuditorPublicKey","inputs":[{"name":"_index","type":"uint256","internalType":"uint256"}],"outputs":[{"name":"","type":"uint256","internalType":"uint256"}],"stateMutability":"view"},{"type":"function","name":"queryMaxDepositAmount","inputs":[{"name":"_pool","type":"address","internalType":"address"}],"outputs":[{"name":"","type":"uint256","internalType":"uint256"}],"stateMutability":"view"},{"type":"function","name":"queryMinBridgeFee","inputs":[{"name":"_pool","type":"address","internalType":"address"}],"outputs":[{"name":"","type":"uint256","internalType":"uint256"}],"stateMutability":"view"},{"type":"function","name":"queryMinDepositAmount","inputs":[{"name":"_pool","type":"address","internalType":"address"}],"outputs":[{"name":"","type":"uint256","internalType":"uint256"}],"stateMutability":"view"},{"type":"function","name":"queryMinPeerExecutorFee","inputs":[{"name":"_pool","type":"address","internalType":"address"}],"outputs":[{"name":"","type":"uint256","internalType":"uint256"}],"stateMutability":"view"},{"type":"function","name":"queryMinPeerRollupFee","inputs":[{"name":"_pool","type":"address","internalType":"address"}],"outputs":[{"name":"","type":"uint256","internalType":"uint256"}],"stateMutability":"view"},{"type":"function","name":"queryMinRollupFee","inputs":[{"name":"_pool","type":"address","internalType":"address"}],"outputs":[{"name":"","type":"uint256","internalType":"uint256"}],"stateMutability":"view"},{"type":"function","name":"queryRollupVerifier","inputs":[{"name":"_rollupSize","type":"uint32","internalType":"uint32"}],"outputs":[{"name":"","type":"tuple","internalType":"struct WrappedVerifier","components":[{"name":"verifier","type":"address","internalType":"address"},{"name":"enabled","type":"bool","internalType":"bool"}]}],"stateMutability":"view"},{"type":"function","name":"queryTransactVerifier","inputs":[{"name":"_numInputs","type":"uint32","internalType":"uint32"},{"name":"_numOutputs","type":"uint32","internalType":"uint32"}],"outputs":[{"name":"","type":"tuple","internalType":"struct WrappedVerifier","components":[{"name":"verifier","type":"address","internalType":"address"},{"name":"enabled","type":"bool","internalType":"bool"}]}],"stateMutability":"view"},{"type":"function","name":"relayerRegistry","inputs":[],"outputs":[{"name":"","type":"address","internalType":"contract IMystikoRelayer"}],"stateMutability":"view"},{"type":"function","name":"renounceRole","inputs":[{"name":"role","type":"bytes32","internalType":"bytes32"},{"name":"callerConfirmation","type":"address","internalType":"address"}],"outputs":[],"stateMutability":"nonpayable"},{"type":"function","name":"revokeRole","inputs":[{"name":"role","type":"bytes32","internalType":"bytes32"},{"name":"account","type":"address","internalType":"address"}],"outputs":[],"stateMutability":"nonpayable"},{"type":"function","name":"rollerRegistry","inputs":[],"outputs":[{"name":"","type":"address","internalType":"contract IMystikoRoller"}],"stateMutability":"view"},{"type":"function","name":"sanctionsCheck","inputs":[],"outputs":[{"name":"","type":"bool","internalType":"bool"}],"stateMutability":"view"},{"type":"function","name":"sanctionsList","inputs":[],"outputs":[{"name":"","type":"address","internalType":"contract ISanctions"}],"stateMutability":"view"},{"type":"function","name":"supportsInterface","inputs":[{"name":"interfaceId","type":"bytes4","internalType":"bytes4"}],"outputs":[{"name":"","type":"bool","internalType":"bool"}],"stateMutability":"view"},{"type":"function","name":"updateAuditorPublicKey","inputs":[{"name":"_index","type":"uint256","internalType":"uint256"},{"name":"_publicKey","type":"uint256","internalType":"uint256"}],"outputs":[],"stateMutability":"nonpayable"},{"type":"function","name":"updateMaxDepositAmount","inputs":[{"name":"_pool","type":"address","internalType":"address"},{"name":"_maxDepositAmount","type":"uint256","internalType":"uint256"}],"outputs":[],"stateMutability":"nonpayable"},{"type":"function","name":"updateMinBridgeFee","inputs":[{"name":"_pool","type":"address","internalType":"address"},{"name":"_minBridgeFee","type":"uint256","internalType":"uint256"}],"outputs":[],"stateMutability":"nonpayable"},{"type":"function","name":"updateMinDepositAmount","inputs":[{"name":"_pool","type":"address","internalType":"address"},{"name":"_minDepositAmount","type":"uint256","internalType":"uint256"}],"outputs":[],"stateMutability":"nonpayable"},{"type":"function","name":"updateMinPeerExecutorFee","inputs":[{"name":"_pool","type":"address","internalType":"address"},{"name":"_minPeerExecutorFee","type":"uint256","internalType":"uint256"}],"outputs":[],"stateMutability":"nonpayable"},{"type":"function","name":"updateMinPeerRollupFee","inputs":[{"name":"_pool","type":"address","internalType":"address"},{"name":"_minPeerRollupFee","type":"uint256","internalType":"uint256"}],"outputs":[],"stateMutability":"nonpayable"},{"type":"function","name":"updateMinRollupFee","inputs":[{"name":"_pool","type":"address","internalType":"address"},{"name":"_minRollupFee","type":"uint256","internalType":"uint256"}],"outputs":[],"stateMutability":"nonpayable"},{"type":"function","name":"updateSanctionsListAddress","inputs":[{"name":"_sanction","type":"address","internalType":"contract ISanctions"}],"outputs":[],"stateMutability":"nonpayable"},{"type":"function","name":"verifyCertificate","inputs":[{"name":"_params","type":"tuple","internalType":"struct CertificateParams","components":[{"name":"account","type":"address","internalType":"address"},{"name":"asset","type":"address","internalType":"address"},{"name":"deadline","type":"uint256","internalType":"uint256"},{"name":"signature","type":"bytes","internalType":"bytes"}]}],"outputs":[{"name":"","type":"bool","internalType":"bool"}],"stateMutability":"view"},{"type":"event","name":"AuditorPublicKeyUpdated","inputs":[{"name":"index","type":"uint256","indexed":true,"internalType":"uint256"},{"name":"publicKey","type":"uint256","indexed":false,"internalType":"uint256"}],"anonymous":false},{"type":"event","name":"CertificateRegistryChanged","inputs":[{"name":"registry","type":"address","indexed":true,"internalType":"address"}],"anonymous":false},{"type":"event","name":"MaxDepositAmountUpdated","inputs":[{"name":"deposit","type":"address","indexed":true,"internalType":"address"},{"name":"maxDepositAmount","type":"uint256","indexed":false,"internalType":"uint256"}],"anonymous":false},{"type":"event","name":"MinBridgeFeeUpdated","inputs":[{"name":"deposit","type":"address","indexed":true,"internalType":"address"},{"name":"minBridgeFee","type":"uint256","indexed":false,"internalType":"uint256"}],"anonymous":false},{"type":"event","name":"MinDepositAmountUpdated","inputs":[{"name":"deposit","type":"address","indexed":true,"internalType":"address"},{"name":"minDepositAmount","type":"uint256","indexed":false,"internalType":"uint256"}],"anonymous":false},{"type":"event","name":"MinPeerExecutorFeeUpdated","inputs":[{"name":"deposit","type":"address","indexed":true,"internalType":"address"},{"name":"minPeerExecutorFee","type":"uint256","indexed":false,"internalType":"uint256"}],"anonymous":false},{"type":"event","name":"MinPeerRollupFeeUpdated","inputs":[{"name":"deposit","type":"address","indexed":true,"internalType":"address"},{"name":"minPeerRollupFee","type":"uint256","indexed":false,"internalType":"uint256"}],"anonymous":false},{"type":"event","name":"MinRollupFeeUpdated","inputs":[{"name":"pool","type":"address","indexed":true,"internalType":"address"},{"name":"minRollupFee","type":"uint256","indexed":false,"internalType":"uint256"}],"anonymous":false},{"type":"event","name":"RelayerRegistryChanged","inputs":[{"name":"registry","type":"address","indexed":true,"internalType":"address"}],"anonymous":false},{"type":"event","name":"RoleAdminChanged","inputs":[{"name":"role","type":"bytes32","indexed":true,"internalType":"bytes32"},{"name":"previousAdminRole","type":"bytes32","indexed":true,"internalType":"bytes32"},{"name":"newAdminRole","type":"bytes32","indexed":true,"internalType":"bytes32"}],"anonymous":false},{"type":"event","name":"RoleGranted","inputs":[{"name":"role","type":"bytes32","indexed":true,"internalType":"bytes32"},{"name":"account","type":"address","indexed":true,"internalType":"address"},{"name":"sender","type":"address","indexed":true,"internalType":"address"}],"anonymous":false},{"type":"event","name":"RoleRevoked","inputs":[{"name":"role","type":"bytes32","indexed":true,"internalType":"bytes32"},{"name":"account","type":"address","indexed":true,"internalType":"address"},{"name":"sender","type":"address","indexed":true,"internalType":"address"}],"anonymous":false},{"type":"event","name":"RollerRegistryChanged","inputs":[{"name":"registry","type":"address","indexed":true,"internalType":"address"}],"anonymous":false},{"type":"event","name":"RollupVerifierDisabled","inputs":[{"name":"rollupSize","type":"uint32","indexed":false,"internalType":"uint32"}],"anonymous":false},{"type":"event","name":"RollupVerifierEnabled","inputs":[{"name":"rollupSize","type":"uint32","indexed":false,"internalType":"uint32"}],"anonymous":false},{"type":"event","name":"SanctionsCheck","inputs":[{"name":"state","type":"bool","indexed":false,"internalType":"bool"}],"anonymous":false},{"type":"event","name":"SanctionsListChanged","inputs":[{"name":"list","type":"address","indexed":false,"internalType":"address"}],"anonymous":false},{"type":"event","name":"TransactVerifierDisabled","inputs":[{"name":"inputNumber","type":"uint32","indexed":false,"internalType":"uint32"},{"name":"outputNumber","type":"uint32","indexed":false,"internalType":"uint32"}],"anonymous":false},{"type":"event","name":"TransactVerifierEnabled","inputs":[{"name":"inputNumber","type":"uint32","indexed":false,"internalType":"uint32"},{"name":"outputNumber","type":"uint32","indexed":false,"internalType":"uint32"}],"anonymous":false},{"type":"error","name":"AccessControlBadConfirmation","inputs":[]},{"type":"error","name":"AccessControlUnauthorizedAccount","inputs":[{"name":"account","type":"address","internalType":"address"},{"name":"neededRole","type":"bytes32","internalType":"bytes32"}]},{"type":"error","name":"AuditorIndexError","inputs":[]},{"type":"error","name":"InvalidDepositAmount","inputs":[]},{"type":"error","name":"InvalidRollupSize","inputs":[]},{"type":"error","name":"NotChanged","inputs":[]},{"type":"error","name":"NumInputsGreaterThanZero","inputs":[]},{"type":"error","name":"OnlyMystikoDAO","inputs":[]},{"type":"error","name":"RollupSizeNotPowerOfTwo","inputs":[]}],"bytecode":{"object":"0x6080604052600f80546001600160a81b031916740140c57923924b5c5c5455c48d93317139addac8fb1790553480156200003857600080fd5b50604051620033a2380380620033a28339810160408190526200005b9162000c71565b600180546001600160a01b0319166001600160a01b03891690811790915560408051634162169f60e01b815290518392869286928c92620000f192600092634162169f916004808201926020929091908290030181865afa158015620000c5573d6000803e3d6000fd5b505050506040513d601f19601f82011682018060405250810190620000eb919062000d74565b62000a83565b50506040805180820190915280836000602090810291909101516001600160a01b039081168352600192820183905260008390526003825283517fa15bc60c955c405d20d9149c709e2460f1c2d9a497496a7f46004d1772c3054c805495909301511515600160a01b026001600160a81b031990951691161792909217909155604080518082019091529081908490602090810291909101516001600160a01b039081168352600192820192909252600260008190526003825283517fc3a24b0501bd2c13a7e57f2db4369ec4c223447539fc0724a9d55ac4a06ebd4d805495909301511515600160a01b026001600160a81b031990951693169290921792909217909155604080518082019091529081908490602090810291909101516001600160a01b0390811683526001928201929092526004600052600380825283517f83ec6a1f0257b830b5e016457c9cf1435391bf56cc98f369a58a54fe93772465805495909301511515600160a01b026001600160a81b031990951693169290921792909217909155604080518082019091529081908490602090810291909101516001600160a01b03908116835260019282019290925260086000526003815282517f85aaa47b6dc46495bb8824fad4583769726fea36efd831a35556690b830a8fbe805494909201511515600160a01b026001600160a81b03199094169216919091179190911790556040805180820190915280836004602090810291909101516001600160a01b03908116835260019282019290925260106000526003815282517f47d4745e02b343689a5e7ac121d2a352b7a15c10328a8759fd7d4cf0999002bb805494909201511515600160a01b026001600160a81b03199094169216919091179190911790556040805180820190915280836005602090810291909101516001600160a01b03908116835260019282019290925260008190526003815282517fe0033292d8349127dd6b6fa9c34f6f3d290151b2785dbcbf18fa2c3985d1f743805494909201511515600160a01b026001600160a81b03199094169216919091179190911790556040805180820190915280836006602090810291909101516001600160a01b039081168352600192820192909252604060008190526003825283517f13e779bc7ec8e84a68157fc5c2caa579dc0ee0b80d83944c270539b94cac271f805495909301511515600160a01b026001600160a81b031990951693169290921792909217909155805180820190915280836007602090810291909101516001600160a01b03908116835260019282019290925260806000526003815282517f3429d6fa9db26e5631128d8185584d24f10323af033be7ff252ec8822b07bae1805494909201511515600160a01b026001600160a81b03199094169216919091179190911790556040805180820190915280836008602090810291909101516001600160a01b0390811683526001928201929092526101006000526003815282517feec86ed86396456308414027da1b2df403cb74680a87867e742cc275a8d16ed8805494909201511515600160a01b026001600160a81b03199094169216919091179190911790556040805180820190915280836009602090810291909101516001600160a01b0390811683526001928201929092526102006000526003815282517fef8f912c2063a9c1079545513398425889f237200dbe31f704b550eedddec155805494909201511515600160a01b026001600160a81b0319909416921691909117919091179055604080518082019091528083600a602090810291909101516001600160a01b03908116835260019282019290925261040060009081526003825283517f8a910a3b1971d2c76c48765917730961d1ad3a099191b12bc820ee69f7c58577805495909301511515600160a01b026001600160a81b031990951693169290921792909217909155604080518082019091529081908390602090810291909101516001600160a01b03908116835260019282018390526000805260008051602062003362833981519152825283517ff8dd1754cdb399bc5b4e203e4acfec383074082a262a94d223f4e1ba300eaf08805495909301511515600160a01b026001600160a81b031990951691161792909217909155604080518082019091529081908390602090810291909101516001600160a01b039081168352600192820183905260009290925260008051602062003362833981519152815282517f7fc34355029a161f70aeee0386d9a2fb9a2518cf3f40dfaefce746c3a701bdb7805494909201511515600160a01b026001600160a81b03199094169216919091179190911790556040805180820190915280826002602090810291909101516001600160a01b039081168352600192820192909252600260005260008051602062003362833981519152815282517fe3676086f4a883dc16130d16abf278f5c150e68c2617fc316cdd91414d82ea74805494909201511515600160a01b026001600160a81b03199094169216919091179190911790556040805180820190915280826003602090810291909101516001600160a01b0390811683526001928201929092526000805260008051602062003382833981519152815282517f82099653b86726a611c31249f8b2da220aad2454c86e465b405d9716e8ffc6e9805494909201511515600160a01b026001600160a81b03199094169216919091179190911790556040805180820190915280826004602090810291909101516001600160a01b039081168352600192820183905260009290925260008051602062003382833981519152815282517f9fffbb9e89029b0baa965344cab51a6b05088fdd0a0df87ecf7dddfe9e4c7b74805494909201511515600160a01b026001600160a81b03199094169216919091179190911790556040805180820190915280826005602090810291909101516001600160a01b0390811683526001928201929092526002600090815260008051602062003382833981519152825283517fe8a7703a24060180a3c4dd84ff9fa3d610431a897140bc76eed0f73b61709532805495909301511515600160a01b026001600160a81b0319909516931692909217929092179091559150505b600581101562000a395781816005811062000a075762000a0762000d9b565b60200201516004826005811062000a225762000a2262000d9b565b01558062000a308162000db1565b915050620009e8565b5050601080546001600160a01b03199081166001600160a01b039889161790915560118054821696881696909617909555505060128054909316919093161790555062000dd99050565b6000828152602081815260408083206001600160a01b038516845290915281205460ff1662000b28576000838152602081815260408083206001600160a01b03861684529091529020805460ff1916600117905562000adf3390565b6001600160a01b0316826001600160a01b0316847f2f8788117e7eff1d82e926ec794901d17c78024a50270940304540a733656f0d60405160405180910390a450600162000b2c565b5060005b92915050565b6001600160a01b038116811462000b4857600080fd5b50565b634e487b7160e01b600052604160045260246000fd5b60405161016081016001600160401b038111828210171562000b875762000b8762000b4b565b60405290565b60405160009060c081016001600160401b038111828210171562000bb55762000bb562000b4b565b60405290508060c083018481111562000bcd57600080fd5b835b8181101562000bf457805162000be58162000b32565b83526020928301920162000bcf565b50505092915050565b600082601f83011262000c0f57600080fd5b60405160a081016001600160401b038111828210171562000c345762000c3462000b4b565b6040528060a084018581111562000c4a57600080fd5b845b8181101562000c6657805183526020928301920162000c4c565b509195945050505050565b6000806000806000806000610340888a03121562000c8e57600080fd5b875162000c9b8162000b32565b8097505060208089015162000cb08162000b32565b60408a015190975062000cc38162000b32565b60608a015190965062000cd68162000b32565b9450609f89018a1362000ce857600080fd5b62000cf262000b61565b806101e08b018c81111562000d0657600080fd5b60808c015b8181101562000d2f57805162000d218162000b32565b845292840192840162000d0b565b508196508c6101ff8d011262000d4457600080fd5b62000d508d8262000b8d565b95505050505062000d66896102a08a0162000bfd565b905092959891949750929550565b60006020828403121562000d8757600080fd5b815162000d948162000b32565b9392505050565b634e487b7160e01b600052603260045260246000fd5b60006001820162000dd257634e487b7160e01b600052601160045260246000fd5b5060010190565b6125798062000de96000396000f3fe608060405234801561001057600080fd5b506004361061030c5760003560e01c80639e629f3a1161019d578063c259e2e6116100e9578063dbda0829116100a2578063df592f7d1161007c578063df592f7d14610859578063e272fbb21461086c578063ea925a301461087f578063ec571c6a1461089257600080fd5b8063dbda08291461081e578063dd757c3414610831578063de2004601461083957600080fd5b8063c259e2e614610780578063c30c780614610793578063c3c4bd0b146107bc578063cc208a05146107e5578063ced7f449146107f8578063d547741f1461080b57600080fd5b8063a7d73abb11610156578063b1c3942211610130578063b1c3942214610731578063b474c10c14610745578063bf420c5614610758578063c112de6c1461076b57600080fd5b8063a7d73abb146106eb578063ae034528146106fe578063b0b7c51b1461071157600080fd5b80639e629f3a1461066c5780639e9ad28e146106955780639fb6f15b146106a8578063a217fddf146106c8578063a592bd69146106d0578063a736f356146106d857600080fd5b806347ff589d1161025c5780637b52b00d116102155780638bd08bf3116101ef5780638bd08bf31461062057806391d148541461063357806392fc7d81146106465780639b0a6fea1461065957600080fd5b80637b52b00d1461057a578063849e8b9f146105a357806385e861eb146105b657600080fd5b806347ff589d146104cb5780634d8404bc146104de57806353c3aa11146104fe578063552598491461051157806362e523381461053a578063730a9fde1461055a57600080fd5b80632d7ea998116102c957806332e71ead116102a357806332e71ead1461047457806336568abe1461047c5780633755f40a1461048f578063473a0631146104a257600080fd5b80632d7ea998146103c55780632f2ff15d1461044e57806330f49cac1461046157600080fd5b806301dbf19f1461031157806301ffc9a71461031b5780630c0d0786146103435780630c8867e614610356578063248a9ca3146103695780632a2b6ba01461039a575b600080fd5b6103196108a5565b005b61032e61032936600461205d565b610992565b60405190151581526020015b60405180910390f35b6103196103513660046120a3565b6109c9565b6103196103643660046120c0565b610ad5565b61038c6103773660046120e2565b60009081526020819052604090206001015490565b60405190815260200161033a565b6001546103ad906001600160a01b031681565b6040516001600160a01b03909116815260200161033a565b6104286103d3366004612114565b60408051808201909152600080825260208201525063ffffffff166000908152600360209081526040918290208251808401909352546001600160a01b0381168352600160a01b900460ff1615159082015290565b6040805182516001600160a01b031681526020928301511515928101929092520161033a565b61031961045c36600461212f565b610c0e565b61031961046f3660046120a3565b610c39565b6103ad610d22565b61031961048a36600461212f565b610d95565b61031961049d36600461215f565b610dcd565b61038c6104b03660046120a3565b6001600160a01b03166000908152600a602052604090205490565b6012546103ad906001600160a01b031681565b61038c6104ec3660046120a3565b60096020526000908152604090205481565b61031961050c36600461215f565b610ee7565b61038c61051f3660046120a3565b6001600160a01b031660009081526009602052604090205490565b61038c6105483660046120a3565b600a6020526000908152604090205481565b61038c6105683660046120a3565b600c6020526000908152604090205481565b61038c6105883660046120a3565b6001600160a01b03166000908152600c602052604090205490565b61032e6105b13660046121fb565b611051565b6104286105c43660046122ec565b6040805180820182526000808252602091820181905263ffffffff948516815260028252828120939094168452918252918290208251808401909352546001600160a01b0381168352600160a01b900460ff1615159082015290565b61031961062e366004612114565b6110c3565b61032e61064136600461212f565b611219565b61032e61065436600461231f565b611242565b610319610667366004612114565b611273565b61038c61067a3660046120a3565b6001600160a01b03166000908152600d602052604090205490565b6103196106a336600461215f565b6113c3565b61038c6106b63660046120a3565b600d6020526000908152604090205481565b61038c600081565b61038c600581565b6103196106e63660046120a3565b6114dd565b6011546103ad906001600160a01b031681565b61031961070c3660046122ec565b6115e9565b61038c61071f3660046120a3565b600e6020526000908152604090205481565b600f5461032e90600160a01b900460ff1681565b6103196107533660046120a3565b611716565b61032e610766366004612331565b611822565b610773611853565b60405161033a9190612343565b61031961078e3660046122ec565b6118d0565b61038c6107a13660046120a3565b6001600160a01b03166000908152600e602052604090205490565b61038c6107ca3660046120a3565b6001600160a01b03166000908152600b602052604090205490565b6103196107f336600461215f565b6119ef565b6010546103ad906001600160a01b031681565b61031961081936600461212f565b611b4c565b61038c61082c3660046120e2565b611b71565b610319611baf565b61038c6108473660046120a3565b600b6020526000908152604090205481565b61032e6108673660046120a3565b611c90565b61031961087a36600461215f565b611cde565b61031961088d36600461215f565b611df8565b600f546103ad906001600160a01b031681565b60015460408051634162169f60e01b8152905133926001600160a01b031691634162169f9160048083019260209291908290030181865afa1580156108ee573d6000803e3d6000fd5b505050506040513d601f19601f820116820180604052508101906109129190612387565b6001600160a01b0316146109395760405163177bc95160e11b815260040160405180910390fd5b600f805460ff60a01b1916600160a01b908117918290556040517fa5ffe1601eb93a7fefd0d0eeb5fc94a2f65475f333836fe2b87fd7bbf59520699261098892900460ff161515815260200190565b60405180910390a1565b60006001600160e01b03198216637965db0b60e01b14806109c357506301ffc9a760e01b6001600160e01b03198316145b92915050565b60015460408051634162169f60e01b8152905133926001600160a01b031691634162169f9160048083019260209291908290030181865afa158015610a12573d6000803e3d6000fd5b505050506040513d601f19601f82011682018060405250810190610a369190612387565b6001600160a01b031614610a5d5760405163177bc95160e11b815260040160405180910390fd5b6012546001600160a01b03808316911603610a8b576040516336a1c33f60e01b815260040160405180910390fd5b601280546001600160a01b0319166001600160a01b0383169081179091556040517f5fb1f555c248f03010c7d4689477528a48fa36768f01584e23bb2b7748096e3c90600090a250565b60015460408051634162169f60e01b8152905133926001600160a01b031691634162169f9160048083019260209291908290030181865afa158015610b1e573d6000803e3d6000fd5b505050506040513d601f19601f82011682018060405250810190610b429190612387565b6001600160a01b031614610b695760405163177bc95160e11b815260040160405180910390fd5b60058210610b8a5760405163318c434560e21b815260040160405180910390fd5b8060048360058110610b9e57610b9e6123a4565b015403610bbe576040516336a1c33f60e01b815260040160405180910390fd5b8060048360058110610bd257610bd26123a4565b015560405181815282907f90c1be9f7438bda0c157901e648d96325a6e063a310ed2d94995305b36032def906020015b60405180910390a25050565b600082815260208190526040902060010154610c2981611f12565b610c338383611f1f565b50505050565b60015460408051634162169f60e01b8152905133926001600160a01b031691634162169f9160048083019260209291908290030181865afa158015610c82573d6000803e3d6000fd5b505050506040513d601f19601f82011682018060405250810190610ca69190612387565b6001600160a01b031614610ccd5760405163177bc95160e11b815260040160405180910390fd5b600f80546001600160a01b0319166001600160a01b0383169081179091556040519081527f798b05991234ccdfcc8cbb4d4ddf992061723991d89af0767fbe2a30d9908b66906020015b60405180910390a150565b601054604080516332e71ead60e01b815290516000926001600160a01b0316916332e71ead9160048083019260209291908290030181865afa158015610d6c573d6000803e3d6000fd5b505050506040513d601f19601f82011682018060405250810190610d909190612387565b905090565b6001600160a01b0381163314610dbe5760405163334bd91960e11b815260040160405180910390fd5b610dc88282611fb1565b505050565b60015460408051634162169f60e01b8152905133926001600160a01b031691634162169f9160048083019260209291908290030181865afa158015610e16573d6000803e3d6000fd5b505050506040513d601f19601f82011682018060405250810190610e3a9190612387565b6001600160a01b031614610e615760405163177bc95160e11b815260040160405180910390fd5b6001600160a01b0382166000908152600d6020526040902054819003610e9a576040516336a1c33f60e01b815260040160405180910390fd5b6001600160a01b0382166000818152600d602052604090819020839055517f134a170415c5d2c56281d63295d79f2448786c719c34c64701c0866df6888cdc90610c029084815260200190565b60015460408051634162169f60e01b8152905133926001600160a01b031691634162169f9160048083019260209291908290030181865afa158015610f30573d6000803e3d6000fd5b505050506040513d601f19601f82011682018060405250810190610f549190612387565b6001600160a01b031614610f7b5760405163177bc95160e11b815260040160405180910390fd5b6001600160a01b0382166000908152600a6020526040902054811580610fa057508082115b15610fbe5760405163fe9ba5cd60e01b815260040160405180910390fd5b6001600160a01b038316600090815260096020526040902054829003610ff7576040516336a1c33f60e01b815260040160405180910390fd5b6001600160a01b03831660008181526009602052604090819020849055517f25285faec59d8ebf7391a9719ce9f0b2aab7eb54e3b08cede4857d3054bf3c53906110449085815260200190565b60405180910390a2505050565b60105460405163849e8b9f60e01b81526000916001600160a01b03169063849e8b9f906110829085906004016123ba565b602060405180830381865afa15801561109f573d6000803e3d6000fd5b505050506040513d601f19601f820116820180604052508101906109c3919061243a565b60015460408051634162169f60e01b8152905133926001600160a01b031691634162169f9160048083019260209291908290030181865afa15801561110c573d6000803e3d6000fd5b505050506040513d601f19601f820116820180604052508101906111309190612387565b6001600160a01b0316146111575760405163177bc95160e11b815260040160405180910390fd5b63ffffffff8116158061117157506104008163ffffffff16115b1561118f576040516309ad7f4b60e21b815260040160405180910390fd5b61119a600182612472565b811663ffffffff166000146111c2576040516322717ff960e01b815260040160405180910390fd5b63ffffffff8116600081815260036020908152604091829020805460ff60a01b1916600160a01b17905590519182527f3c788354fde95e4d1a0611a120697290aa510a4db0906e17dc982800793a5cd89101610d17565b6000918252602082815260408084206001600160a01b0393909316845291905290205460ff1690565b6011546040516392fc7d8160e01b81526000916001600160a01b0316906392fc7d8190611082908590600401612496565b60015460408051634162169f60e01b8152905133926001600160a01b031691634162169f9160048083019260209291908290030181865afa1580156112bc573d6000803e3d6000fd5b505050506040513d601f19601f820116820180604052508101906112e09190612387565b6001600160a01b0316146113075760405163177bc95160e11b815260040160405180910390fd5b63ffffffff8116158061132157506104008163ffffffff16115b1561133f576040516309ad7f4b60e21b815260040160405180910390fd5b61134a600182612472565b811663ffffffff16600014611372576040516322717ff960e01b815260040160405180910390fd5b63ffffffff8116600081815260036020908152604091829020805460ff60a01b1916905590519182527f4690516d72338b0199392ee28062eb371a5370b0df29e5818b46a5386c48b69d9101610d17565b60015460408051634162169f60e01b8152905133926001600160a01b031691634162169f9160048083019260209291908290030181865afa15801561140c573d6000803e3d6000fd5b505050506040513d601f19601f820116820180604052508101906114309190612387565b6001600160a01b0316146114575760405163177bc95160e11b815260040160405180910390fd5b6001600160a01b0382166000908152600b6020526040902054819003611490576040516336a1c33f60e01b815260040160405180910390fd5b6001600160a01b0382166000818152600b602052604090819020839055517f3b7cc2b78ea2bc0eaeb6acee7dd4a5d9baedad176b72e4a2e02f34700fe0a0f390610c029084815260200190565b60015460408051634162169f60e01b8152905133926001600160a01b031691634162169f9160048083019260209291908290030181865afa158015611526573d6000803e3d6000fd5b505050506040513d601f19601f8201168201806040525081019061154a9190612387565b6001600160a01b0316146115715760405163177bc95160e11b815260040160405180910390fd5b6010546001600160a01b0380831691160361159f576040516336a1c33f60e01b815260040160405180910390fd5b601080546001600160a01b0319166001600160a01b0383169081179091556040517f401048be7e3120dc86a214a7f521a45d3a25ba2d912a481c988bfbdfd3b56bfe90600090a250565b60015460408051634162169f60e01b8152905133926001600160a01b031691634162169f9160048083019260209291908290030181865afa158015611632573d6000803e3d6000fd5b505050506040513d601f19601f820116820180604052508101906116569190612387565b6001600160a01b03161461167d5760405163177bc95160e11b815260040160405180910390fd5b8163ffffffff166000036116a457604051639f7bd94b60e01b815260040160405180910390fd5b63ffffffff828116600081815260026020908152604080832094861680845294825291829020805460ff60a01b1916600160a01b17905581519283528201929092527f69a5e6edd4ba043ca70583f67f288f864e9a505d50b8a0b6c3293a5c7a58104a91015b60405180910390a15050565b60015460408051634162169f60e01b8152905133926001600160a01b031691634162169f9160048083019260209291908290030181865afa15801561175f573d6000803e3d6000fd5b505050506040513d601f19601f820116820180604052508101906117839190612387565b6001600160a01b0316146117aa5760405163177bc95160e11b815260040160405180910390fd5b6011546001600160a01b038083169116036117d8576040516336a1c33f60e01b815260040160405180910390fd5b601180546001600160a01b0319166001600160a01b0383169081179091556040517f92e50816b03798f7049608b42acd59748185fa0c0844c2e29fe3e722454033b590600090a250565b601254604051635fa1062b60e11b81526000916001600160a01b03169063bf420c56906110829085906004016124ef565b60408051600580825260c08201909252606091600091906020820160a08036833701905050905060005b60058110156118ca5760048160058110611899576118996123a4565b01548282815181106118ad576118ad6123a4565b6020908102919091010152806118c28161252a565b91505061187d565b50919050565b60015460408051634162169f60e01b8152905133926001600160a01b031691634162169f9160048083019260209291908290030181865afa158015611919573d6000803e3d6000fd5b505050506040513d601f19601f8201168201806040525081019061193d9190612387565b6001600160a01b0316146119645760405163177bc95160e11b815260040160405180910390fd5b8163ffffffff1660000361198b57604051639f7bd94b60e01b815260040160405180910390fd5b63ffffffff828116600081815260026020908152604080832094861680845294825291829020805460ff60a01b1916905581519283528201929092527f68975a479ff4df5932418b38e44f50afeedc4dbd4705e245862b81f0f9d26586910161170a565b60015460408051634162169f60e01b8152905133926001600160a01b031691634162169f9160048083019260209291908290030181865afa158015611a38573d6000803e3d6000fd5b505050506040513d601f19601f82011682018060405250810190611a5c9190612387565b6001600160a01b031614611a835760405163177bc95160e11b815260040160405180910390fd5b6001600160a01b038216600090815260096020526040902054811580611aa857508082105b15611ac65760405163fe9ba5cd60e01b815260040160405180910390fd5b6001600160a01b0383166000908152600a6020526040902054829003611aff576040516336a1c33f60e01b815260040160405180910390fd5b6001600160a01b0383166000818152600a602052604090819020849055517f7cb839a2a04796319050e2d5f9e2bbeb307543ed4ac6042995e15220e2b6b247906110449085815260200190565b600082815260208190526040902060010154611b6781611f12565b610c338383611fb1565b600060058210611b945760405163318c434560e21b815260040160405180910390fd5b60048260058110611ba757611ba76123a4565b015492915050565b60015460408051634162169f60e01b8152905133926001600160a01b031691634162169f9160048083019260209291908290030181865afa158015611bf8573d6000803e3d6000fd5b505050506040513d601f19601f82011682018060405250810190611c1c9190612387565b6001600160a01b031614611c435760405163177bc95160e11b815260040160405180910390fd5b600f805460ff60a01b1916908190556040517fa5ffe1601eb93a7fefd0d0eeb5fc94a2f65475f333836fe2b87fd7bbf59520699161098891600160a01b90910460ff161515815260200190565b600f54600090600160a01b900460ff16611cac57506000919050565b600f5460405163df592f7d60e01b81526001600160a01b0384811660048301529091169063df592f7d90602401611082565b60015460408051634162169f60e01b8152905133926001600160a01b031691634162169f9160048083019260209291908290030181865afa158015611d27573d6000803e3d6000fd5b505050506040513d601f19601f82011682018060405250810190611d4b9190612387565b6001600160a01b031614611d725760405163177bc95160e11b815260040160405180910390fd5b6001600160a01b0382166000908152600c6020526040902054819003611dab576040516336a1c33f60e01b815260040160405180910390fd5b6001600160a01b0382166000818152600c602052604090819020839055517f54200d45d936247f9925b0b0ba6bd4c1798b47ef60aeddc37c4fe929b5a36eb690610c029084815260200190565b60015460408051634162169f60e01b8152905133926001600160a01b031691634162169f9160048083019260209291908290030181865afa158015611e41573d6000803e3d6000fd5b505050506040513d601f19601f82011682018060405250810190611e659190612387565b6001600160a01b031614611e8c5760405163177bc95160e11b815260040160405180910390fd5b6001600160a01b0382166000908152600e6020526040902054819003611ec5576040516336a1c33f60e01b815260040160405180910390fd5b6001600160a01b0382166000818152600e602052604090819020839055517ffc2d42b90a5d905dfe9c1be85294f2a7e9f3cd9bedf2d57abdc9767048a52c9390610c029084815260200190565b611f1c813361201c565b50565b6000611f2b8383611219565b611fa9576000838152602081815260408083206001600160a01b03861684529091529020805460ff19166001179055611f613390565b6001600160a01b0316826001600160a01b0316847f2f8788117e7eff1d82e926ec794901d17c78024a50270940304540a733656f0d60405160405180910390a45060016109c3565b5060006109c3565b6000611fbd8383611219565b15611fa9576000838152602081815260408083206001600160a01b0386168085529252808320805460ff1916905551339286917ff6391f5c32d9c69d2a47ea670b442974b53935d1edc7fd64eb21e047a839171b9190a45060016109c3565b6120268282611219565b6120595760405163e2517d3f60e01b81526001600160a01b03821660048201526024810183905260440160405180910390fd5b5050565b60006020828403121561206f57600080fd5b81356001600160e01b03198116811461208757600080fd5b9392505050565b6001600160a01b0381168114611f1c57600080fd5b6000602082840312156120b557600080fd5b81356120878161208e565b600080604083850312156120d357600080fd5b50508035926020909101359150565b6000602082840312156120f457600080fd5b5035919050565b803563ffffffff8116811461210f57600080fd5b919050565b60006020828403121561212657600080fd5b612087826120fb565b6000806040838503121561214257600080fd5b8235915060208301356121548161208e565b809150509250929050565b6000806040838503121561217257600080fd5b823561217d8161208e565b946020939093013593505050565b634e487b7160e01b600052604160045260246000fd5b6040516080810167ffffffffffffffff811182821017156121c4576121c461218b565b60405290565b604051601f8201601f1916810167ffffffffffffffff811182821017156121f3576121f361218b565b604052919050565b6000602080838503121561220e57600080fd5b823567ffffffffffffffff8082111561222657600080fd5b908401906080828703121561223a57600080fd5b6122426121a1565b823561224d8161208e565b81528284013561225c8161208e565b818501526040838101359082015260608301358281111561227c57600080fd5b80840193505086601f84011261229157600080fd5b8235828111156122a3576122a361218b565b6122b5601f8201601f191686016121ca565b925080835287858286010111156122cb57600080fd5b80858501868501376000908301909401939093526060830152509392505050565b600080604083850312156122ff57600080fd5b612308836120fb565b9150612316602084016120fb565b90509250929050565b600060a082840312156118ca57600080fd5b6000604082840312156118ca57600080fd5b6020808252825182820181905260009190848201906040850190845b8181101561237b5783518352928401929184019160010161235f565b50909695505050505050565b60006020828403121561239957600080fd5b81516120878161208e565b634e487b7160e01b600052603260045260246000fd5b6000602080835260018060a01b03808551168285015280828601511660408501525060408401516060840152606084015160808085015280518060a086015260005b818110156124185782810184015186820160c0015283016123fc565b50600060c0828701015260c0601f19601f830116860101935050505092915050565b60006020828403121561244c57600080fd5b8151801515811461208757600080fd5b634e487b7160e01b600052601160045260246000fd5b63ffffffff82811682821603908082111561248f5761248f61245c565b5092915050565b60a0810182356124a58161208e565b6001600160a01b0390811683526020840135906124c18261208e565b8082166020850152505060408301356040830152606083013560608301526080830135608083015292915050565b6040810182356124fe8161208e565b6001600160a01b03908116835260208401359061251a8261208e565b8082166020850152505092915050565b60006001820161253c5761253c61245c565b506001019056fea2646970667358221220db29abe8419b33cfd8b3ae74f6daf5a68a6b412d31a0f5f8f452998e3f485f3864736f6c63430008140033e90b7bceb6e7df5418fb78d8ee546e97c83a08bbccc01a0644d599ccd2a7c2e0679795a0195a1b76cdebb7c51d74e058aee92919b8c3389af86ef24535e8a28c","linkReferences":{}},"methodIdentifiers":{"AUDITOR_COUNT()":"a592bd69","DEFAULT_ADMIN_ROLE()":"a217fddf","canDoRelay((address,address))":"bf420c56","canDoRollup((address,address,uint256,uint256,uint256))":"92fc7d81","certificateRegistry()":"ced7f449","changeCertificateRegistry(address)":"a736f356","changeRelayerRegistry(address)":"0c0d0786","changeRollerRegistry(address)":"b474c10c","daoRegistry()":"2a2b6ba0","disableRollupVerifier(uint32)":"9b0a6fea","disableSanctionsCheck()":"dd757c34","disableTransactVerifier(uint32,uint32)":"c259e2e6","enableRollupVerifier(uint32)":"8bd08bf3","enableSanctionsCheck()":"01dbf19f","enableTransactVerifier(uint32,uint32)":"ae034528","getIssuerAddress()":"32e71ead","getRoleAdmin(bytes32)":"248a9ca3","grantRole(bytes32,address)":"2f2ff15d","hasRole(bytes32,address)":"91d14854","isSanctioned(address)":"df592f7d","maxDepositAmountMap(address)":"62e52338","minBridgeFeeAmount(address)":"730a9fde","minDepositAmountMap(address)":"4d8404bc","minPeerExecutorFeeAmount(address)":"9fb6f15b","minPeerRollupFeeAmount(address)":"b0b7c51b","minRollupFeeMap(address)":"de200460","queryAllAuditorPublicKeys()":"c112de6c","queryAuditorPublicKey(uint256)":"dbda0829","queryMaxDepositAmount(address)":"473a0631","queryMinBridgeFee(address)":"7b52b00d","queryMinDepositAmount(address)":"55259849","queryMinPeerExecutorFee(address)":"9e629f3a","queryMinPeerRollupFee(address)":"c30c7806","queryMinRollupFee(address)":"c3c4bd0b","queryRollupVerifier(uint32)":"2d7ea998","queryTransactVerifier(uint32,uint32)":"85e861eb","relayerRegistry()":"47ff589d","renounceRole(bytes32,address)":"36568abe","revokeRole(bytes32,address)":"d547741f","rollerRegistry()":"a7d73abb","sanctionsCheck()":"b1c39422","sanctionsList()":"ec571c6a","supportsInterface(bytes4)":"01ffc9a7","updateAuditorPublicKey(uint256,uint256)":"0c8867e6","updateMaxDepositAmount(address,uint256)":"cc208a05","updateMinBridgeFee(address,uint256)":"e272fbb2","updateMinDepositAmount(address,uint256)":"53c3aa11","updateMinPeerExecutorFee(address,uint256)":"3755f40a","updateMinPeerRollupFee(address,uint256)":"ea925a30","updateMinRollupFee(address,uint256)":"9e9ad28e","updateSanctionsListAddress(address)":"30f49cac","verifyCertificate((address,address,uint256,bytes))":"849e8b9f"},"id":0}