{"abi":[{"type":"constructor","inputs":[{"name":"_daoRegistry","type":"address","internalType":"address"},{"name":"_vXZK","type":"address","internalType":"address"},{"name":"_minVoteTokenAmount","type":"uint256","internalType":"uint256"}],"stateMutability":"nonpayable"},{"type":"function","name":"DEFAULT_ADMIN_ROLE","inputs":[],"outputs":[{"name":"","type":"bytes32","internalType":"bytes32"}],"stateMutability":"view"},{"type":"function","name":"ROLLER_ROLE","inputs":[],"outputs":[{"name":"","type":"bytes32","internalType":"bytes32"}],"stateMutability":"view"},{"type":"function","name":"canDoRollup","inputs":[{"name":"_params","type":"tuple","internalType":"struct CanDoRollupParams","components":[{"name":"pool","type":"address","internalType":"address"},{"name":"roller","type":"address","internalType":"address"},{"name":"rollupSize","type":"uint256","internalType":"uint256"},{"name":"queueCount","type":"uint256","internalType":"uint256"},{"name":"includedCount","type":"uint256","internalType":"uint256"}]}],"outputs":[{"name":"","type":"bool","internalType":"bool"}],"stateMutability":"view"},{"type":"function","name":"changeMinRollupSize","inputs":[{"name":"_newMinRollupSize","type":"uint256","internalType":"uint256"}],"outputs":[],"stateMutability":"nonpayable"},{"type":"function","name":"changeRollerMinVoteTokenAmount","inputs":[{"name":"_newMinVoteTokenAmount","type":"uint256","internalType":"uint256"}],"outputs":[],"stateMutability":"nonpayable"},{"type":"function","name":"daoRegistry","inputs":[],"outputs":[{"name":"","type":"address","internalType":"contract MystikoGovernorRegistry"}],"stateMutability":"view"},{"type":"function","name":"getRoleAdmin","inputs":[{"name":"role","type":"bytes32","internalType":"bytes32"}],"outputs":[{"name":"","type":"bytes32","internalType":"bytes32"}],"stateMutability":"view"},{"type":"function","name":"grantRole","inputs":[{"name":"role","type":"bytes32","internalType":"bytes32"},{"name":"account","type":"address","internalType":"address"}],"outputs":[],"stateMutability":"nonpayable"},{"type":"function","name":"hasRole","inputs":[{"name":"role","type":"bytes32","internalType":"bytes32"},{"name":"account","type":"address","internalType":"address"}],"outputs":[{"name":"","type":"bool","internalType":"bool"}],"stateMutability":"view"},{"type":"function","name":"minRollupSize","inputs":[],"outputs":[{"name":"","type":"uint256","internalType":"uint256"}],"stateMutability":"view"},{"type":"function","name":"minVoteTokenAmount","inputs":[],"outputs":[{"name":"","type":"uint256","internalType":"uint256"}],"stateMutability":"view"},{"type":"function","name":"renounceRole","inputs":[{"name":"role","type":"bytes32","internalType":"bytes32"},{"name":"callerConfirmation","type":"address","internalType":"address"}],"outputs":[],"stateMutability":"nonpayable"},{"type":"function","name":"revokeRole","inputs":[{"name":"role","type":"bytes32","internalType":"bytes32"},{"name":"account","type":"address","internalType":"address"}],"outputs":[],"stateMutability":"nonpayable"},{"type":"function","name":"supportsInterface","inputs":[{"name":"interfaceId","type":"bytes4","internalType":"bytes4"}],"outputs":[{"name":"","type":"bool","internalType":"bool"}],"stateMutability":"view"},{"type":"function","name":"vXZK","inputs":[],"outputs":[{"name":"","type":"address","internalType":"address"}],"stateMutability":"view"},{"type":"event","name":"MinRollupSizeChanged","inputs":[{"name":"_size","type":"uint256","indexed":false,"internalType":"uint256"}],"anonymous":false},{"type":"event","name":"RoleAdminChanged","inputs":[{"name":"role","type":"bytes32","indexed":true,"internalType":"bytes32"},{"name":"previousAdminRole","type":"bytes32","indexed":true,"internalType":"bytes32"},{"name":"newAdminRole","type":"bytes32","indexed":true,"internalType":"bytes32"}],"anonymous":false},{"type":"event","name":"RoleGranted","inputs":[{"name":"role","type":"bytes32","indexed":true,"internalType":"bytes32"},{"name":"account","type":"address","indexed":true,"internalType":"address"},{"name":"sender","type":"address","indexed":true,"internalType":"address"}],"anonymous":false},{"type":"event","name":"RoleRevoked","inputs":[{"name":"role","type":"bytes32","indexed":true,"internalType":"bytes32"},{"name":"account","type":"address","indexed":true,"internalType":"address"},{"name":"sender","type":"address","indexed":true,"internalType":"address"}],"anonymous":false},{"type":"event","name":"RollerMinVoteTokenAmountChanged","inputs":[{"name":"_amount","type":"uint256","indexed":false,"internalType":"uint256"}],"anonymous":false},{"type":"error","name":"AccessControlBadConfirmation","inputs":[]},{"type":"error","name":"AccessControlUnauthorizedAccount","inputs":[{"name":"account","type":"address","internalType":"address"},{"name":"neededRole","type":"bytes32","internalType":"bytes32"}]},{"type":"error","name":"InsufficientBalanceForAction","inputs":[]},{"type":"error","name":"NotChanged","inputs":[]},{"type":"error","name":"OnlyMystikoDAO","inputs":[]},{"type":"error","name":"RollupSizeTooSmall","inputs":[]},{"type":"error","name":"UnauthorizedRole","inputs":[]}],"bytecode":{"object":"0x608060405234801561001057600080fd5b50604051610afd380380610afd83398101604081905261002f916101b2565b600180546001600160a01b0319166001600160a01b03851690811790915560408051634162169f60e01b8152905185926100ba92600092634162169f916004808201926020929091908290030181865afa158015610091573d6000803e3d6000fd5b505050506040513d601f19601f820116820180604052508101906100b591906101ee565b6100ea565b50506002556001600355600480546001600160a01b0319166001600160a01b039290921691909117905550610210565b6000828152602081815260408083206001600160a01b038516845290915281205460ff1661018c576000838152602081815260408083206001600160a01b03861684529091529020805460ff191660011790556101443390565b6001600160a01b0316826001600160a01b0316847f2f8788117e7eff1d82e926ec794901d17c78024a50270940304540a733656f0d60405160405180910390a4506001610190565b5060005b92915050565b80516001600160a01b03811681146101ad57600080fd5b919050565b6000806000606084860312156101c757600080fd5b6101d084610196565b92506101de60208501610196565b9150604084015190509250925092565b60006020828403121561020057600080fd5b61020982610196565b9392505050565b6108de8061021f6000396000f3fe608060405234801561001057600080fd5b50600436106100f55760003560e01c806374feb05911610097578063abc6fa9811610066578063abc6fa9814610217578063d547741f1461022a578063e254001c1461023d578063ecf773ec1461025057600080fd5b806374feb059146101e057806391d14854146101e957806392fc7d81146101fc578063a217fddf1461020f57600080fd5b80632a2b6ba0116100d35780632a2b6ba01461017a5780632f2ff15d146101a557806336568abe146101ba57806367eb51aa146101cd57600080fd5b806301ffc9a7146100fa5780631d81481514610122578063248a9ca314610157575b600080fd5b61010d6101083660046107ae565b610259565b60405190151581526020015b60405180910390f35b6101497fe2135251f547a5efd5bea7c3093f0320fb2500ec516aa532242391a2610016eb81565b604051908152602001610119565b6101496101653660046107df565b60009081526020819052604090206001015490565b60015461018d906001600160a01b031681565b6040516001600160a01b039091168152602001610119565b6101b86101b336600461080d565b610290565b005b6101b86101c836600461080d565b6102bb565b6101b86101db3660046107df565b6102f3565b61014960025481565b61010d6101f736600461080d565b6103e5565b61010d61020a36600461083d565b61040e565b610149600081565b6101b86102253660046107df565b610553565b6101b861023836600461080d565b61063e565b60045461018d906001600160a01b031681565b61014960035481565b60006001600160e01b03198216637965db0b60e01b148061028a57506301ffc9a760e01b6001600160e01b03198316145b92915050565b6000828152602081905260409020600101546102ab81610663565b6102b58383610670565b50505050565b6001600160a01b03811633146102e45760405163334bd91960e11b815260040160405180910390fd5b6102ee8282610702565b505050565b60015460408051634162169f60e01b8152905133926001600160a01b031691634162169f9160048083019260209291908290030181865afa15801561033c573d6000803e3d6000fd5b505050506040513d601f19601f820116820180604052508101906103609190610855565b6001600160a01b0316146103875760405163177bc95160e11b815260040160405180910390fd5b80600354036103a9576040516336a1c33f60e01b815260040160405180910390fd5b60038190556040518181527fe1f038c60e1a2d2ed2958fbb3feefb7f259dedc375ad27e6a53bf91e9fa2feca906020015b60405180910390a150565b6000918252602082815260408084206001600160a01b0393909316845291905290205460ff1690565b60007fe2135251f547a5efd5bea7c3093f0320fb2500ec516aa532242391a2610016eb6104416040840160208501610872565b61044c8260006103e5565b6104775761045a82826103e5565b61047757604051630aedfc3560e21b815260040160405180910390fd5b6003548460400135101561049e5760405163150a617b60e31b815260040160405180910390fd5b6002546004546001600160a01b03166370a082316104c26040880160208901610872565b6040516001600160e01b031960e084901b1681526001600160a01b039091166004820152602401602060405180830381865afa158015610506573d6000803e3d6000fd5b505050506040513d601f19601f8201168201806040525081019061052a919061088f565b10156105495760405163f241cafb60e01b815260040160405180910390fd5b5060019392505050565b60015460408051634162169f60e01b8152905133926001600160a01b031691634162169f9160048083019260209291908290030181865afa15801561059c573d6000803e3d6000fd5b505050506040513d601f19601f820116820180604052508101906105c09190610855565b6001600160a01b0316146105e75760405163177bc95160e11b815260040160405180910390fd5b8060025403610609576040516336a1c33f60e01b815260040160405180910390fd5b60028190556040518181527fdc550064f5802443f83c40758575664bb8bed4998660ea69df133c47b43f0aad906020016103da565b60008281526020819052604090206001015461065981610663565b6102b58383610702565b61066d813361076d565b50565b600061067c83836103e5565b6106fa576000838152602081815260408083206001600160a01b03861684529091529020805460ff191660011790556106b23390565b6001600160a01b0316826001600160a01b0316847f2f8788117e7eff1d82e926ec794901d17c78024a50270940304540a733656f0d60405160405180910390a450600161028a565b50600061028a565b600061070e83836103e5565b156106fa576000838152602081815260408083206001600160a01b0386168085529252808320805460ff1916905551339286917ff6391f5c32d9c69d2a47ea670b442974b53935d1edc7fd64eb21e047a839171b9190a450600161028a565b61077782826103e5565b6107aa5760405163e2517d3f60e01b81526001600160a01b03821660048201526024810183905260440160405180910390fd5b5050565b6000602082840312156107c057600080fd5b81356001600160e01b0319811681146107d857600080fd5b9392505050565b6000602082840312156107f157600080fd5b5035919050565b6001600160a01b038116811461066d57600080fd5b6000806040838503121561082057600080fd5b823591506020830135610832816107f8565b809150509250929050565b600060a0828403121561084f57600080fd5b50919050565b60006020828403121561086757600080fd5b81516107d8816107f8565b60006020828403121561088457600080fd5b81356107d8816107f8565b6000602082840312156108a157600080fd5b505191905056fea2646970667358221220238958c3e69c93136404544dc2acc38fc33ec00fee8934ad75507d8990c3a3b864736f6c63430008140033","linkReferences":{}},"methodIdentifiers":{"DEFAULT_ADMIN_ROLE()":"a217fddf","ROLLER_ROLE()":"1d814815","canDoRollup((address,address,uint256,uint256,uint256))":"92fc7d81","changeMinRollupSize(uint256)":"67eb51aa","changeRollerMinVoteTokenAmount(uint256)":"abc6fa98","daoRegistry()":"2a2b6ba0","getRoleAdmin(bytes32)":"248a9ca3","grantRole(bytes32,address)":"2f2ff15d","hasRole(bytes32,address)":"91d14854","minRollupSize()":"ecf773ec","minVoteTokenAmount()":"74feb059","renounceRole(bytes32,address)":"36568abe","revokeRole(bytes32,address)":"d547741f","supportsInterface(bytes4)":"01ffc9a7","vXZK()":"e254001c"},"id":6}