{"abi":[{"type":"constructor","inputs":[{"name":"_daoRegistry","type":"address","internalType":"address"},{"name":"_vXZK","type":"address","internalType":"address"},{"name":"_minVoteTokenAmount","type":"uint256","internalType":"uint256"}],"stateMutability":"nonpayable"},{"type":"function","name":"DEFAULT_ADMIN_ROLE","inputs":[],"outputs":[{"name":"","type":"bytes32","internalType":"bytes32"}],"stateMutability":"view"},{"type":"function","name":"RELAYER_ROLE","inputs":[],"outputs":[{"name":"","type":"bytes32","internalType":"bytes32"}],"stateMutability":"view"},{"type":"function","name":"canDoRelay","inputs":[{"name":"_params","type":"tuple","internalType":"struct CanDoRelayParams","components":[{"name":"pool","type":"address","internalType":"address"},{"name":"relayer","type":"address","internalType":"address"}]}],"outputs":[{"name":"","type":"bool","internalType":"bool"}],"stateMutability":"view"},{"type":"function","name":"changeRelayerMinVoteTokenAmount","inputs":[{"name":"_newMinVoteTokenAmount","type":"uint256","internalType":"uint256"}],"outputs":[],"stateMutability":"nonpayable"},{"type":"function","name":"daoRegistry","inputs":[],"outputs":[{"name":"","type":"address","internalType":"contract MystikoGovernorRegistry"}],"stateMutability":"view"},{"type":"function","name":"getRoleAdmin","inputs":[{"name":"role","type":"bytes32","internalType":"bytes32"}],"outputs":[{"name":"","type":"bytes32","internalType":"bytes32"}],"stateMutability":"view"},{"type":"function","name":"grantRole","inputs":[{"name":"role","type":"bytes32","internalType":"bytes32"},{"name":"account","type":"address","internalType":"address"}],"outputs":[],"stateMutability":"nonpayable"},{"type":"function","name":"hasRole","inputs":[{"name":"role","type":"bytes32","internalType":"bytes32"},{"name":"account","type":"address","internalType":"address"}],"outputs":[{"name":"","type":"bool","internalType":"bool"}],"stateMutability":"view"},{"type":"function","name":"minVoteTokenAmount","inputs":[],"outputs":[{"name":"","type":"uint256","internalType":"uint256"}],"stateMutability":"view"},{"type":"function","name":"renounceRole","inputs":[{"name":"role","type":"bytes32","internalType":"bytes32"},{"name":"callerConfirmation","type":"address","internalType":"address"}],"outputs":[],"stateMutability":"nonpayable"},{"type":"function","name":"revokeRole","inputs":[{"name":"role","type":"bytes32","internalType":"bytes32"},{"name":"account","type":"address","internalType":"address"}],"outputs":[],"stateMutability":"nonpayable"},{"type":"function","name":"supportsInterface","inputs":[{"name":"interfaceId","type":"bytes4","internalType":"bytes4"}],"outputs":[{"name":"","type":"bool","internalType":"bool"}],"stateMutability":"view"},{"type":"function","name":"vXZK","inputs":[],"outputs":[{"name":"","type":"address","internalType":"address"}],"stateMutability":"view"},{"type":"event","name":"RelayerMinVoteTokenAmountChanged","inputs":[{"name":"_amount","type":"uint256","indexed":false,"internalType":"uint256"}],"anonymous":false},{"type":"event","name":"RoleAdminChanged","inputs":[{"name":"role","type":"bytes32","indexed":true,"internalType":"bytes32"},{"name":"previousAdminRole","type":"bytes32","indexed":true,"internalType":"bytes32"},{"name":"newAdminRole","type":"bytes32","indexed":true,"internalType":"bytes32"}],"anonymous":false},{"type":"event","name":"RoleGranted","inputs":[{"name":"role","type":"bytes32","indexed":true,"internalType":"bytes32"},{"name":"account","type":"address","indexed":true,"internalType":"address"},{"name":"sender","type":"address","indexed":true,"internalType":"address"}],"anonymous":false},{"type":"event","name":"RoleRevoked","inputs":[{"name":"role","type":"bytes32","indexed":true,"internalType":"bytes32"},{"name":"account","type":"address","indexed":true,"internalType":"address"},{"name":"sender","type":"address","indexed":true,"internalType":"address"}],"anonymous":false},{"type":"error","name":"AccessControlBadConfirmation","inputs":[]},{"type":"error","name":"AccessControlUnauthorizedAccount","inputs":[{"name":"account","type":"address","internalType":"address"},{"name":"neededRole","type":"bytes32","internalType":"bytes32"}]},{"type":"error","name":"InsufficientBalanceForAction","inputs":[]},{"type":"error","name":"NotChanged","inputs":[]},{"type":"error","name":"OnlyMystikoDAO","inputs":[]},{"type":"error","name":"UnauthorizedRole","inputs":[]}],"bytecode":{"object":"0x608060405234801561001057600080fd5b506040516109a33803806109a383398101604081905261002f916101ad565b600180546001600160a01b0319166001600160a01b03851690811790915560408051634162169f60e01b8152905185926100ba92600092634162169f916004808201926020929091908290030181865afa158015610091573d6000803e3d6000fd5b505050506040513d601f19601f820116820180604052508101906100b591906101e9565b6100e5565b5050600255600380546001600160a01b0319166001600160a01b03929092169190911790555061020b565b6000828152602081815260408083206001600160a01b038516845290915281205460ff16610187576000838152602081815260408083206001600160a01b03861684529091529020805460ff1916600117905561013f3390565b6001600160a01b0316826001600160a01b0316847f2f8788117e7eff1d82e926ec794901d17c78024a50270940304540a733656f0d60405160405180910390a450600161018b565b5060005b92915050565b80516001600160a01b03811681146101a857600080fd5b919050565b6000806000606084860312156101c257600080fd5b6101cb84610191565b92506101d960208501610191565b9150604084015190509250925092565b6000602082840312156101fb57600080fd5b61020482610191565b9392505050565b6107898061021a6000396000f3fe608060405234801561001057600080fd5b50600436106100cf5760003560e01c806391d148541161008c578063bf420c5611610066578063bf420c56146101cb578063c6fc3a81146101de578063d547741f146101f1578063e254001c1461020457600080fd5b806391d1485414610189578063926d7d7f1461019c578063a217fddf146101c357600080fd5b806301ffc9a7146100d4578063248a9ca3146100fc5780632a2b6ba01461012d5780632f2ff15d1461015857806336568abe1461016d57806374feb05914610180575b600080fd5b6100e76100e2366004610659565b610217565b60405190151581526020015b60405180910390f35b61011f61010a36600461068a565b60009081526020819052604090206001015490565b6040519081526020016100f3565b600154610140906001600160a01b031681565b6040516001600160a01b0390911681526020016100f3565b61016b6101663660046106b8565b61024e565b005b61016b61017b3660046106b8565b610279565b61011f60025481565b6100e76101973660046106b8565b6102b1565b61011f7f7f256ddc37fa5071f539965be51a77e34e84c3d50c076f6bb663b4025ced42d981565b61011f600081565b6100e76101d93660046106e8565b6102da565b61016b6101ec36600461068a565b6103f8565b61016b6101ff3660046106b8565b6104e9565b600354610140906001600160a01b031681565b60006001600160e01b03198216637965db0b60e01b148061024857506301ffc9a760e01b6001600160e01b03198316145b92915050565b6000828152602081905260409020600101546102698161050e565b610273838361051b565b50505050565b6001600160a01b03811633146102a25760405163334bd91960e11b815260040160405180910390fd5b6102ac82826105ad565b505050565b6000918252602082815260408084206001600160a01b0393909316845291905290205460ff1690565b60007f7f256ddc37fa5071f539965be51a77e34e84c3d50c076f6bb663b4025ced42d961030d6040840160208501610700565b6103188260006102b1565b6103435761032682826102b1565b61034357604051630aedfc3560e21b815260040160405180910390fd5b6002546003546001600160a01b03166370a082316103676040880160208901610700565b6040516001600160e01b031960e084901b1681526001600160a01b039091166004820152602401602060405180830381865afa1580156103ab573d6000803e3d6000fd5b505050506040513d601f19601f820116820180604052508101906103cf919061071d565b10156103ee5760405163f241cafb60e01b815260040160405180910390fd5b5060019392505050565b60015460408051634162169f60e01b8152905133926001600160a01b031691634162169f9160048083019260209291908290030181865afa158015610441573d6000803e3d6000fd5b505050506040513d601f19601f820116820180604052508101906104659190610736565b6001600160a01b03161461048c5760405163177bc95160e11b815260040160405180910390fd5b80600254036104ae576040516336a1c33f60e01b815260040160405180910390fd5b60028190556040518181527f12264c570871a99b923f1d752e51ad4ec4cf334cb88cac55a0bc4738a88ae6f29060200160405180910390a150565b6000828152602081905260409020600101546105048161050e565b61027383836105ad565b6105188133610618565b50565b600061052783836102b1565b6105a5576000838152602081815260408083206001600160a01b03861684529091529020805460ff1916600117905561055d3390565b6001600160a01b0316826001600160a01b0316847f2f8788117e7eff1d82e926ec794901d17c78024a50270940304540a733656f0d60405160405180910390a4506001610248565b506000610248565b60006105b983836102b1565b156105a5576000838152602081815260408083206001600160a01b0386168085529252808320805460ff1916905551339286917ff6391f5c32d9c69d2a47ea670b442974b53935d1edc7fd64eb21e047a839171b9190a4506001610248565b61062282826102b1565b6106555760405163e2517d3f60e01b81526001600160a01b03821660048201526024810183905260440160405180910390fd5b5050565b60006020828403121561066b57600080fd5b81356001600160e01b03198116811461068357600080fd5b9392505050565b60006020828403121561069c57600080fd5b5035919050565b6001600160a01b038116811461051857600080fd5b600080604083850312156106cb57600080fd5b8235915060208301356106dd816106a3565b809150509250929050565b6000604082840312156106fa57600080fd5b50919050565b60006020828403121561071257600080fd5b8135610683816106a3565b60006020828403121561072f57600080fd5b5051919050565b60006020828403121561074857600080fd5b8151610683816106a356fea2646970667358221220d2bf412d9b019a761384c0c6267b16ff80d53260d3596092039de26c7104108164736f6c63430008140033","linkReferences":{}},"methodIdentifiers":{"DEFAULT_ADMIN_ROLE()":"a217fddf","RELAYER_ROLE()":"926d7d7f","canDoRelay((address,address))":"bf420c56","changeRelayerMinVoteTokenAmount(uint256)":"c6fc3a81","daoRegistry()":"2a2b6ba0","getRoleAdmin(bytes32)":"248a9ca3","grantRole(bytes32,address)":"2f2ff15d","hasRole(bytes32,address)":"91d14854","minVoteTokenAmount()":"74feb059","renounceRole(bytes32,address)":"36568abe","revokeRole(bytes32,address)":"d547741f","supportsInterface(bytes4)":"01ffc9a7","vXZK()":"e254001c"},"id":5}