{"abi":[{"type":"constructor","inputs":[{"name":"_dao","type":"address","internalType":"address"}],"stateMutability":"nonpayable"},{"type":"function","name":"changeMystikoDAO","inputs":[{"name":"_newMystikoDAO","type":"address","internalType":"address"}],"outputs":[],"stateMutability":"nonpayable"},{"type":"function","name":"dao","inputs":[],"outputs":[{"name":"","type":"address","internalType":"address"}],"stateMutability":"view"},{"type":"function","name":"operator","inputs":[],"outputs":[{"name":"","type":"address","internalType":"address"}],"stateMutability":"view"},{"type":"function","name":"previousDaos","inputs":[{"name":"","type":"address","internalType":"address"}],"outputs":[{"name":"","type":"bool","internalType":"bool"}],"stateMutability":"view"},{"type":"function","name":"renounceOperator","inputs":[],"outputs":[],"stateMutability":"nonpayable"},{"type":"function","name":"rollBackMystikoDAO","inputs":[{"name":"_previousDao","type":"address","internalType":"address"}],"outputs":[],"stateMutability":"nonpayable"},{"type":"event","name":"MystikoDAOChanged","inputs":[{"name":"dao","type":"address","indexed":true,"internalType":"address"}],"anonymous":false},{"type":"event","name":"OperatorRenounced","inputs":[],"anonymous":false},{"type":"error","name":"InvalidMystikoDAOAddress","inputs":[]},{"type":"error","name":"OnlyMystikoDAO","inputs":[]},{"type":"error","name":"OnlyOperator","inputs":[]}],"bytecode":{"object":"0x608060405234801561001057600080fd5b506040516103af3803806103af83398101604081905261002f9161005d565b600080546001600160a01b039092166001600160a01b0319928316179055600180549091163317905561008d565b60006020828403121561006f57600080fd5b81516001600160a01b038116811461008657600080fd5b9392505050565b6103138061009c6000396000f3fe608060405234801561001057600080fd5b50600436106100625760003560e01c806326abb3fd146100675780632ab6f8db1461007c5780634162169f14610084578063570ca735146100b457806390dff261146100c7578063fef8ceb9146100da575b600080fd5b61007a6100753660046102ad565b61010d565b005b61007a6101b8565b600054610097906001600160a01b031681565b6040516001600160a01b0390911681526020015b60405180910390f35b600154610097906001600160a01b031681565b61007a6100d53660046102ad565b61021e565b6100fd6100e83660046102ad565b60026020526000908152604090205460ff1681565b60405190151581526020016100ab565b6001546001600160a01b03163314610138576040516327e1f1e560e01b815260040160405180910390fd5b6001600160a01b03811660009081526002602052604090205460ff1661017057604051623e148760e41b815260040160405180910390fd5b600080546001600160a01b0319166001600160a01b038316908117825560405190917fde2e1324f3df3c01ca8d6df2ffe554430c8ad84c48bef85f850875e15f81eb8691a250565b6001546001600160a01b031633146101e3576040516327e1f1e560e01b815260040160405180910390fd5b600180546001600160a01b03191690556040517f28c7a5e83d73ddcbedb683cf4205e26069658d9228053225bcaacce0cdfc47dd90600090a1565b6000546001600160a01b031633146102495760405163177bc95160e11b815260040160405180910390fd5b600080546001600160a01b03908116825260026020526040808320805460ff1916600117905582549184166001600160a01b0319909216821783555190917fde2e1324f3df3c01ca8d6df2ffe554430c8ad84c48bef85f850875e15f81eb8691a250565b6000602082840312156102bf57600080fd5b81356001600160a01b03811681146102d657600080fd5b939250505056fea2646970667358221220b12cc55b69b7ba992e135b3e673a114721e5d6de6fe68833ae466cb3281a65f864736f6c63430008140033","linkReferences":{}},"methodIdentifiers":{"changeMystikoDAO(address)":"90dff261","dao()":"4162169f","operator()":"570ca735","previousDaos(address)":"fef8ceb9","renounceOperator()":"2ab6f8db","rollBackMystikoDAO(address)":"26abb3fd"},"id":39}